:020000040800F2
:10000000000002205DDF0008050600080706000862
:10001000090600080B0600080D0600080000000095
:10002000000000000000000000000000B1B900085E
:100030000F0600080000000051BA00083FB5000894
:10004000B1DF0008B1DF0008B1DF0008B1DF000850
:10005000B1DF0008B1DF0008B1DF0008B1DF000840
:10006000B1DF0008B1DF0008B1DF000811060008A9
:100070002106000831060008410600085106000864
:10008000B1DF0008B1DF0008B1DF0008B1DF000810
:1000900061060008B1DF000871060008B1DF000842
:1000A000B1DF0008B1DF0008B1DF0008B1DF0008F0
:1000B000B1DF0008B1DF0008B1DF0008B1DF0008E0
:1000C000B1DF0008B1DF0008B1DF000881060008D9
:1000D000B1DF000891060008B1DF0008B1DF0008B9
:1000E000B1DF0008B1DF000800000000B1DF000848
:1000F000B1DF0008B1DF0008B1DF0008B1DF0008A0
:10010000B1DF0008B1DF0008B1DF0008B1DF00088F
:10011000B1DF0008B1DF0008A1060008B1DF000868
:10012000B1DF0008B1DF0008B1DF0008B1DF00086F
:10013000B1DF0008B1DF0008B1DF0008B1DF00085F
:1001400000000000000000000000000000000000AF
:10015000B1DF0008B1DF0008B1DF0008B1DF00083F
:10016000B1DF0008B1DF0008B1DF0008B1DF00082F
:10017000B1DF0008B1060008B1DF00080000000090
:10018000B1DF0008B1DF0008B1DF0008B1DF00080F
:10019000B1DF0008B1DF0008B1DF0008B1DF0008FF
:1001A000B1DF0008B1DF0008B1DF00080000000087
:1001B000B1DF0008B1DF0008B1DF0008B1DF0008DF
:1001C000B1DF0008B1DF00080000000000000000FF
:1001D0000000000000000000B1DF00080000000087
:1001E000000000000000000000000000000000000F
:1001F0000000000000000000B1DF0008B1DF0008CF
:10020000B1DF0008B1DF000800000000B1DF000826
:10021000B1DF0008B1DF0008B1DF0008B1DF00087E
:10022000B1DF000800000000B1DF0008000000009E
:10023000B1DF0008B1DF000800000000B1DF0008F6
:10024000B1DF0008B1DF0008B1DF0008B1DF00084E
:10025000B1DF0008B1DF0008B1DF0008B1DF00083E
:10026000B1DF0008B1DF0008B1DF0008B1DF00082E
:10027000B1DF0008B1DF0008B1DF000800000000B6
:10028000B1DF0008B1DF0008B1DF0008B1DF00080E
:1002900000000000B1DF0008B1DF0008000000002E
:1002A00000000000B1DF0008B1DF0008B1DF000886
:1002B000B1DF0008B1DF0008B1DF0008B1DF0008DE
:0C02C000B1DF0008B1DF0008B1DF00086A
:1002D00053B94AB9002908BF00281CBF4FF0FF31AD
:1002E0004FF0FF3000F00CB8ADF1080C6DE904CE12
:1002F0000DF09AFEDDF804E0DDE9022304B070475A
:10030000704700BF0348044B834202D0034B03B144
:10031000184770470401002004010020000000007D
:100320000548064B1B1AD90F01EBA301491002D057
:10033000034B03B11847704704010020040100205B
:100340000000000010B5064C237843B9FFF7DAFF30
:10035000044B13B10448AFF300800123237010BD98
:10036000040100200000000048E3000808B5054B28
:100370001BB105490548AFF30080BDE80840FFF711
:10038000CFBF00BF000000000801002048E30008C4
:1003900030B585B00024009401940294039406F0D3
:1003A00003FF01238DF800308DF801404FF04052DB
:1003B00001920D228DF808208DF809408DF80A3041
:1003C00003228DF80B208DF80C308DF80D408DF840
:1003D0000E408DF80F40684606F004FF042006F03A
:1003E000F1FE05B030BD000008B50268034B9A422B
:1003F00000D008BD06F052FFFBE700BF0010004030
:1004000072B6FEE710B5A4B04C22002111A80DF081
:10041000D0FD2022002109A80DF0CBFD002403947B
:1004200004940594069407940894022006F020FE94
:100430000194334B9A6922F440429A619B6903F418
:1004400040430193019B2E4B9B6913F4005FFAD04C
:10045000232311934FF480331293012214924023EB
:100460001593179202231A931B931C9328211D9115
:100470001E9204221F9220930C2321930023229387
:10048000239311A802F090FE002835D13F23099351
:1004900003210A910B9008230C9340230D930E9394
:1004A0004FF480620F92109309A803F0BBFA28BBA7
:1004B0004FF48022014603F069F9124BD3F8EC2087
:1004C00042F00202C3F8EC20D3F8EC3003F0020350
:1004D0000293029B002303934FF040520492059332
:1004E0004BF67F330693222307932023089303A818
:1004F00005F0AAF824B010BDFFF782FFFFF780FFD8
:10050000004802580044025808B5FFF741FF304B3D
:100510005B6913F4003F13D1BFF34F8FBFF36F8FAD
:100520002B4B0022C3F85022BFF34F8FBFF36F8FC6
:100530005A6942F400325A61BFF34F8FBFF36F8F95
:10054000234B5B6913F4803F27D1214B0022C3F872
:100550008420BFF34F8FD3F880C0CCF34E3000E03F
:100560001846CCF3C90243F6E07303EA401343EAAA
:1005700082731749C1F86032013AB2F1FF3FF2D1FC
:10058000431E0028ECD1BFF34F8F4B6943F48033F7
:100590004B61BFF34F8FBFF36F8F06F04FFEFFF736
:1005A00031FF0DF001F80DF07BF90DF04BFA0DF075
:1005B00011FC0DF0B1F90DF0AFFB0DF007FB0DF0E4
:1005C000CBF80AF0C9FF00F00DF80AF0D7FFFEE7FC
:1005D00000ED00E008B500F051F901200BF04DF8F6
:1005E000FBE7000008B5044A002104480AF0E4FFD4
:1005F000034B186008BD00BF00E50008D5050008E2
:1006000020010020FEE7FEE7FEE7FEE7FEE7704779
:1006100008B5024806F092F908BD00BF7C9500209D
:1006200008B5024806F08AF908BD00BF049500200D
:1006300008B5024806F082F908BD00BF0498002002
:1006400008B5024806F07AF908BD00BF8C97002073
:1006500008B5024806F072F908BD00BF7C9600207C
:1006600008B5024808F00AF808BD00BF64940020ED
:1006700008B5024808F002F808BD00BF64940020E5
:1006800008B5024808F0D0FA08BD00BFF495002074
:1006900008B5024808F080FC08BD00BF7C98002027
:1006A00008B5024800F026FD08BD00BF2401002067
:1006B00008B5024801F03EFC08BD00BF6C180020E0
:1006C00000B583B00A4BD3F8F42042F00202C3F81D
:1006D000F420D3F8F43003F002030193019B0022CD
:1006E0000F216FF0010006F04BFD03B000BD00BF0D
:1006F000004402580F2801D90120704710B58AB074
:10070000044600220146362006F03AFD362006F067
:1007100047FD1A4B1C601A4BD3F8E82042F0100238
:10072000C3F8E820D3F8E83003F010030093009BEF
:1007300001A902A803F006FB079BBBB903F0DEFA90
:100740000346104AA2FB03239B0C013B0E480F4AB1
:10075000026040F2E732C2604360002303618360BD
:1007600000F028FE30B101200AB010BD03F0C6FA37
:100770004300E6E7044800F067FCF5E7740000205A
:100780000044025883DE1B43240100200010004077
:100790002B4AD2F8883043F47003C2F88830294BD2
:1007A0001B6803F00F03062B06D8264A136823F0B4
:1007B0000F0343F007031360234B1A6842F0010252
:1007C0001A6000221A611968204A0A401A601D4BFB
:1007D0001B6813F0080F06D01A4A136823F00F03A2
:1007E00043F007031360184B00229A61DA611A6222
:1007F000174999621749D962174919635A6399636E
:10080000DA6319645A64196821F4802119601A6640
:10081000D3F8D43013F4805F10D10B4BD3F8D4202D
:1008200042F48052C3F8D4200C4A43F2D201116042
:10083000D3F8D42022F48052C3F8D420704700BFEC
:1008400000ED00E000200052004402587FEDF6EA7F
:10085000000202020000FF0180020101004000527C
:10086000054AD36843F00203D360034B5B6813F47B
:10087000005FFAD0704700BF0048025808B5012257
:10088000104911480BF0FCF980B910490E480BF0E3
:100890000EFA70B90E490C480CF01FFA60B90A48FC
:1008A0000BF025FA58B906F00DFC08BDFFF7A8FDBE
:1008B000EBE7FFF7A5FDEDE7FFF7A2FDEFE7FFF799
:1008C0009FFDF0E73C00002070010020C0000020E8
:1008D0005C00002012230B80004870472800002095
:1008E00004230B800048704724000020002393421B
:1008F0001DD200B510E00CF1370C01F813C0000157
:100900004FEA430C0CF1010C4FF0000E01F80CE023
:100910000133DBB2934209D24FEA107CB0F1204F91
:10092000E9D20CF1300C01F813C0E8E700BD7047C4
:100930000B4BD3F80008D3F80428D3F80838C018B4
:1009400000D1704710B5144608220649FFF7CEFFC4
:100950000422044B03F110012046FFF7C7FF10BD2E
:1009600000E0F11F0A00002008B51A230B80FFF7F2
:10097000DFFF014808BD00BF0800002008B50A4697
:1009800028B9054905480BF026FF034808BD024970
:1009900002480BF020FFF8E74C040020B8E3000801
:1009A00010B50A46034C214603480BF014FF2046BD
:1009B00010BD00BF4C040020D0E3000808B50A4673
:1009C00028B9054905480BF006FF034808BD024950
:1009D00002480BF000FFF8E74C040020E4E30008B5
:1009E00008B50A4628B9054905480BF0F4FE034846
:1009F00008BD024902480BF0EEFEF8E74C04002067
:100A0000F0E3000800207047002070470020704786
:100A100010B50146044C20460CF078F920460CF045
:100A200081F9002010BD00BF7001002010B5064CF8
:100A30000022064920460CF05BF9054920460CF0DF
:100A400065F9002010BD00BF700100204C06002099
:100A50004C0E002010B5B0B00446B822002102A808
:100A60000DF0A7FA2268164B9A4201D030B010BDA3
:100A70004FF480220023CDE902234FF44013239347
:100A800002A803F091FAB8B906F01CFB0D4BD3F89D
:100A9000D82042F00072C3F8D820D3F8D83003F041
:100AA00000730193019B002205214D2006F068FB95
:100AB0004D2006F075FBD9E7FFF7A2FCE4E700BF85
:100AC000000004400044025808B500F29C41D0F8F0
:100AD000E0040BF022F908BD08B501EBC10300EBFF
:100AE0008303D3F86022D0F8E0040BF0E4F908BDEA
:100AF00008B501EBC10300EB83031A6AD0F8E004E8
:100B00000BF039FA08BD08B5D0F8E0040BF081F914
:100B100008BD10B50446C17911B1022909D10121DE
:100B2000D4F8E0040BF058F9D4F8E0040BF021F904
:100B300010BDFFF765FC0121F2E7000010B5044687
:100B4000D0F8E0040BF04BF92268D2F8003E43F0F5
:100B50000103C2F8003EE37A23B1034A136943F06C
:100B60000603136110BD00BF00ED00E008B5D0F82A
:100B7000E0040BF042F908BD08B5D0F8E0040BF032
:100B80006EF908BD08B5D0F8E0040BF052F908BDC5
:100B900008B5D0F8E0040BF078F908BD08B5D0F836
:100BA000E0040BF074F908BD08B50378012B01D0FF
:100BB000002008BD154BC3F8E004C0F8C832144A41
:100BC0001A6009221A710221D97100229A71597290
:100BD0009A72DA721A739A73DA731A74184600F0FA
:100BE000D6FE80B94FF40071084801F0E2FC802283
:100BF0000021064801F0B8FC4FF4BA720121034805
:100C000001F0B2FCD4E7FFF7FBFBEBE76C18002028
:100C100000000440D0F8C83211F0800F08D101F074
:100C20007F0101EBC10103EB810393F8560270478A
:100C300001F07F0101EBC10103EB8103987D704757
:100C400008B5D0F8C80201F0B0F808BD00487047F8
:100C50004C1600207047022804D005D808B10320A4
:100C600070477047012070470320704708B5D0F8DF
:100C7000C80200F010FFFFF7EEFF08BD08B594466C
:100C80001A466346D0F8C80200F0E7FFFFF7E3FF1B
:100C900008BD08B5D0F8C80201F02AF8FFF7DBFF5D
:100CA00008BD08B5D0F8C80201F0ADF8FFF7D3FFD2
:100CB00008BD08B5D0F8C80201F0E8F8FFF7CBFF8F
:100CC00008BD08B5D0F8C80200F0B4FFFFF7C3FFB5
:100CD00008BD08B5D0F8C80201F070F8FFF7BBFFF7
:100CE00008BD08B5D0F8C80201F03AF8FFF7B3FF25
:100CF00008BD000030B5026A036A23F001030362F5
:100D00004468D0F818C0234B0CEA03030D6845EA89
:100D1000030E22F002028B6813431F4ADFF888C0DB
:100D2000604518BF90420CBF0122002211D00CF583
:100D3000804C604514BF4FF0000C4FF0010C174D74
:100D4000A84206D0BCF1000F03D1DFF858C06045BF
:100D500005D123F00803CD682B4323F0040362B9C7
:100D60000F4A904214BF00220122DFF830C06045D4
:100D700003D012B90B4A904205D124F440744A6959
:100D800022438C6914434460C0F818E04A68426307
:100D9000036230BD8CFFFEFF0000014000400140B7
:100DA00000440140004801400004014010B58C4659
:100DB000036A026A22F480720262D0F804E0C16918
:100DC0001D4A0A40DCF80040144323F40073DCF8A9
:100DD000082043EA0223194A1949884218BF904261
:100DE0000CBF0122002207D123F40063DCF80C10B1
:100DF00043EA012323F480635AB9124A904214BF94
:100E0000002201221049884203D012B90F4A9042B1
:100E100009D12EF44052DCF8141042EA0112DCF839
:100E2000181042EA011EC0F804E0C461DCF8042096
:100E3000C263036210BD00BF8CFFFEFF00000140D3
:100E400000040140004401400040014000480140CE
:100E500010B5036A026A22F480520262D0F804C01C
:100E6000D0F81CE0184A0EEA02020C6842EA04229A
:100E700023F400538C6843EA0433DFF854E0134C46
:100E8000704518BFA04212D00EF5804E704514BFB9
:100E90004FF0000E4FF0010E04F58044A04206D042
:100EA000BEF1000F03D1DFF82CE0704504D12CF423
:100EB000804C4C694CEA841CC0F804C0C2614A688A
:100EC0000264036210BD00BFFF8CFFFE0000014002
:100ED000000401400048014030B5036A026A22F470
:100EE000803202624268446DDFF860C004EA0C0C94
:100EF0000C6844EA0C0423F400338D6843EA05438C
:100F0000DFF84CE0DFF84CC0604518BF704512D0E8
:100F10000CF5804C604514BF4FF0000C4FF0010CF5
:100F20000EF5804E704506D0BCF1000F03D1DFF8FE
:100F300028C0604504D122F480324D6942EA05227E
:100F4000426044654A688265036230BD8FFFFEFFE0
:100F500000000140000401400048014010B5036A50
:100F6000026A22F480120262D0F804C0D0F854E081
:100F7000184A0EEA02020C6842EA042223F4001323
:100F80008C6843EA0453DFF854E0134C704518BFF3
:100F9000A04212D00EF5804E704514BF4FF0000EE7
:100FA0004FF0010E04F58044A04206D0BEF1000FC0
:100FB00003D1DFF82CE0704504D12CF4802C4C696F
:100FC0004CEA842CC0F804C042654A68C2650362DA
:100FD00010BD00BFFF8FFFFE000001400004014074
:100FE00000480140036AD0F820C02CF0010CC0F882
:100FF00020C0D0F818C02CF0F00C4CEA021223F0FC
:101000000A030B43826103627047036AD0F820C071
:101010002CF0100CC0F820C0D0F818C02CF4704C84
:101020004CEA023223F0A00343EA01138261036217
:10103000704700008268034B13400B4343F00703E3
:10104000836070478FFFCFFF90F83D30012B42D176
:10105000022380F83D300268D36843F00103D36077
:1010600003681F4AB3F1804F18BF934225D0A2F501
:101070007C42934221D002F5806293421DD002F55A
:101080008062934219D002F57842934215D0A2F5BE
:101090006C42934211D002F5943293420DD0A2F5E6
:1010A000C042934209D002F58062934205D01A688B
:1010B00042F001021A60002070479968094A0A400C
:1010C000062A18BFB2F5803F07D01A6842F0010225
:1010D0001A6000207047012070470020704700BF51
:1010E00000000140070001007047704770477047DB
:1010F0007047704770B504460368DE681D6915F0D7
:10110000020F10D016F0020F0DD06FF002021A611C
:101110000123037703689B6913F0030F67D0FFF780
:10112000E6FF0023237715F0040F12D016F0040F0A
:101130000FD023686FF004021A610223237723681B
:101140009B6913F4407F58D02046FFF7D0FF00235F
:10115000237715F0080F12D016F0080F0FD0236870
:101160006FF008021A61042323772368DB6913F008
:10117000030F49D02046FFF7BAFF0023237715F06D
:10118000100F12D016F0100F0FD023686FF010025E
:101190001A61082323772368DB6913F4407F3AD070
:1011A0002046FFF7A4FF0023237715F0010F02D09C
:1011B00016F0010F36D115F0800F02D115F4005F43
:1011C00002D016F0800F35D115F4807F02D016F0D2
:1011D000800F37D115F0400F02D016F0400F39D1F3
:1011E00015F0200F02D016F0200F3BD170BDFFF795
:1011F0007DFF2046FFF77CFF93E72046FFF776FF51
:101200002046FFF775FFA2E72046FFF76FFF204655
:10121000FFF76EFFB1E72046FFF768FF2046FFF7B4
:1012200067FFC0E723686FF001021A612046FFF7ED
:10123000DBF8C0E723686FF402521A61204600F021
:101240003CFBC1E723686FF480721A61204600F00E
:1012500035FBBFE723686FF040021A612046FFF7B5
:1012600048FFBDE723686FF020021A61204600F0B6
:1012700023FBBBE710B58C460368464A904214BF77
:1012800000220122B0F1804F14BF114642F001014B
:10129000F1B9DFF808E1704514BF4FF0000E4FF0D0
:1012A000010E3D4CA04213D0BEF1000F10D10EF143
:1012B000804E0EF5823E704514BF4FF0000E4FF089
:1012C000010E04F50064A04202D0BEF1000F04D06C
:1012D00023F07003DCF80440234369BB2F498842A4
:1012E00014BF00210121DFF8B0E0704524D019BB04
:1012F00001F1804101F58231884214BF00210121B2
:101300000EF5006E704517D0B1B92549884214BF5B
:10131000002101210EF59A3E70450DD061B9214999
:10132000884214BF002101210EF5006E704503D0E4
:1013300011B91D49884204D123F44073DCF80C1024
:101340000B4323F08003DCF814100B43DCF8081087
:10135000C162DCF8001081621449884208BF42F083
:10136000010262B90E4A904214BF0022012201F527
:101370007051884203D012B90D4A904202D1DCF874
:1013800010200263026842F00402026001224261FE
:10139000036010BD00000140000400400008004050
:1013A0000044014000E0004000E40040000401402F
:1013B0000048014060B310B5044690F83D3013B3C7
:1013C000022384F83D30214651F8040BFFF752FF09
:1013D000012384F8483084F83E3084F83F3084F8A4
:1013E000403084F8413084F8423084F8433084F847
:1013F000443084F8453084F8463084F8473084F827
:101400003D30002010BD80F83C300CF007FCD7E7E1
:101410000120704760B310B5044690F83D3013B317
:10142000022384F83D30214651F8040BFFF722FFD8
:10143000012384F8483084F83E3084F83F3084F843
:10144000403084F8413084F8423084F8433084F8E6
:10145000443084F8453084F8463084F8473084F8C6
:101460003D30002010BD80F83C30FFF73DFED7E74F
:101470000120704750B338B50D46044690F83D3012
:10148000FBB1022384F83D30214651F8040BFFF7ED
:10149000F1FE2268136823F00803136022681368C2
:1014A0002B431360012384F8483084F83E3084F8DD
:1014B0003F3084F8443084F8453084F83D300020D3
:1014C00038BD80F83C30FFF710FEDAE701207047A6
:1014D00010B58E46036A026A22F010020262D0F84A
:1014E00004C081691D4C0C40DEF8001044EA012460
:1014F00023F02003DEF8082043EA0213184A1949B2
:10150000884218BF90420CBF0122002207D123F06D
:101510008003DEF80C1043EA011323F040035AB9AC
:10152000114A904214BF002201221049884203D080
:1015300012B90F4A904209D12CF4406CDEF8142005
:101540004CEA820CDEF818204CEA820CC0F804C089
:101550008461DEF804208263036210BDFF8CFFFE0D
:1015600000000140000401400044014000400140EF
:101570000048014038B590F83C30012B00F09880CD
:101580000446012380F83C300C2A66D01ED8042A79
:1015900038D0082A4CD0BAB90D460068FFF7AAFB2C
:1015A0002268936943F0080393612268936923F0EA
:1015B000040393612268936929690B4393610020B6
:1015C000002384F83C3038BD1846F9E7102A5AD079
:1015D000142A15D10D460068FFF7C0FC2268536D30
:1015E00043F4006353652268536D23F480635365AD
:1015F0002268536D296943EA012353650020DFE720
:101600000120DDE70D460068FFF762FF226893695D
:1016100043F4006393612268936923F480639361C8
:1016200022689369296943EA012393610020C7E78F
:101630000D460068FFF7BAFB2268D36943F0080340
:10164000D3612268D36923F00403D3612268D3698C
:1016500029690B43D3610020B2E70D460068FFF70C
:10166000F7FB2268D36943F40063D3612268D3692E
:1016700023F48063D3612268D369296943EA012393
:10168000D36100209CE70D460068FFF725FC226827
:10169000536D43F0080353652268536D23F0040330
:1016A00053652268536D29690B435365002087E712
:1016B000022088E7D0F808C02CF47F4C42EA0322CD
:1016C0000A4342EA0C0282607047000090F83C3006
:1016D000012B00F08F8010B50446012380F83C30C8
:1016E000022380F83D3002689068434B03409360CA
:1016F0000B68702B55D031D8502B6CD01FD8402B95
:101700000AD1CA6849682068FFF76CFC402120684C
:10171000FFF790FC002029E068D8202B03D00AD8DE
:101720000BB1102B05D119462068FFF783FC002070
:101730001CE001201AE0302BF5D0012016E0602BD0
:101740000AD1CA6849682068FFF75FFC60212068F9
:10175000FFF770FC002009E0012007E0B3F5005F0F
:101760002CD00AD8B3F5805F42D10020012384F841
:101770003D30002384F83C3010BD204A9342D2D043
:1017800007D8B3F5801FCED0B3F1101FCBD0012006
:10179000ECE71B4A9342C6D010329342C3D00120DB
:1017A000E4E7CB684A6889682068FFF783FF22680E
:1017B000936843F0770393600020D7E7CB684A68CB
:1017C00089682068FFF776FF2268936843F48043B6
:1017D00093600020CAE7CA6849682068FFF702FCE6
:1017E00050212068FFF726FC0020BFE70120BDE75D
:1017F0000120BBE7022070478800CEFF20001000C8
:101800003000100090F83C20012A4FD010B503465C
:10181000012280F83C20022280F83D2002685068B6
:10182000D2F808C0DFF88CE0214C724518BFA24204
:1018300003D120F470004C68204320F070000C6845
:10184000204350601A681A48B2F1804F18BF824294
:101850001FD0A0F57C4082421BD000F58060824200
:1018600017D000F58060824213D000F578408242A4
:101870000FD0A0F56C4082420BD000F5943082422C
:1018800007D0A0F5C040824203D000F580608242BC
:1018900005D12CF0800C896841EA0C01916001228D
:1018A00083F83D20002083F83C0010BD02207047E3
:1018B00000000140000401407047704770472DE967
:1018C000F04383B0D0F8008001EBC10300EB830349
:1018D0009A6A5B6A9A4254D807460C469B1A01EBF7
:1018E000C10200EB8202D2699A4200D31A4602F189
:1018F00003094FEA990915E006F103094FEA99092E
:1019000004EBC40507EB8505296ABB790093B3B2E4
:10191000E2B2404601F0A8F92B6A33442B62AB6A6D
:101920003344AB6208EB441303F510639B699BB22D
:101930004B4512D304EBC40307EB83039A6A5B6A3B
:101940009A420AD24BB19B1A04EBC40207EB820203
:10195000D6699E42D0D31E46CEE704EBC40307EB04
:1019600083077A6ABB6A9A420FD804F00F040122F7
:10197000A240D8F8343823EA0203C8F834380020EB
:1019800000E0012003B0BDE8F0830020FAE730B5A5
:1019900083B000287CD0044690F89534B3B103237B
:1019A00084F89534206800F00DFF237C8DF800301A
:1019B000231D0ECB206800F03BFE60B1022384F8AB
:1019C000953401231D46284603B030BD80F8943479
:1019D000FFF740F8E3E70146206801F078FB024694
:1019E000B8B903462079984219D903EBC30104EB37
:1019F0008101012048750B75CB8500200876C861F0
:101A0000086203EBC30104EB810148620133DBB2DE
:101A1000E8E7022384F8953401231D46D3E790427A
:101A200017D902EBC20304EB8303002183F855129C
:101A300083F8542283F85812C3F85C12C3F860127A
:101A400002EBC20304EB8303C3F864120132D2B287
:101A5000E5E7237C8DF80030231D0ECB206800F0D5
:101A600007FF054650B96074012384F89534237B41
:101A7000012B09D0206801F0E9FAA4E7022384F8D9
:101A8000953401231D469EE7204600F097FDF1E7BF
:101A900001231D4697E7036890F89424012A1AD081
:101AA00010B50446012280F89424DA6812F0400F41
:101AB00002D0427B012A09D0206800F07DFE206818
:101AC00001F0B6FA002084F8940410BD9A6B42F439
:101AD00080329A63F0E702207047000038B5044670
:101AE0000D460068D0F840C000EB411303F53063A9
:101AF0009A68A179012911D038498C4556D03DB951
:101B000005EBC50304EB8303D3F86432002B5ED0EE
:101B1000E9B22046FEF7E0FF002038BD12F0080FC2
:101B200009D02F498C45F7D912F4004FF4D04FF467
:101B300000429A60F0E712F0200F02D020229A6053
:101B4000EAE712F0280FE7D125498C4506D912F4AF
:101B5000004F03D04FF400429A60DDE705EBC50269
:101B600004EB8202D2F874121B69C3F31203CB1A7E
:101B7000C2F868327DB905EBC50204EB8202D2F8E7
:101B800064226AB105EBC50204EB8202D2F860124E
:101B90001944C2F86012E9B22046FEF79DFFBBE788
:101BA00004F29C42012101F0D1FAF4E712F4004F53
:101BB00003D04FF400429A60AEE712F0200F01D03C
:101BC00020229A60E9B22046FEF786FFA4E704F2DD
:101BD0009C42194601F0BAFA9AE700BF0A31544F05
:101BE0000A30544F38B5044603681D6C03EB4113AB
:101BF000D3F8081B0E4A954207D903F5306311F458
:101C0000004F02D04FF400429A602046FEF75CFF7E
:101C1000074B9D4202D9A379012B01D0002038BD8A
:101C200004F29C420121206801F090FAF6E700BF1F
:101C30000A30544F90F89434012B0CD010B5044660
:101C4000012380F894344174006801F0E1F9002028
:101C500084F8940410BD0220704710B5044608466D
:101C600011F0800F2ED101F00F0E0EEBCE0C4FEACB
:101C70008C0C0CF5147CA4440CF104010EEBCE0E7C
:101C800004EB8E0E4FF0000C8EF855C200F00F0CD6
:101C900081F800C0C2F30A028A600B714A780AB167
:101CA000A1F81AC0022B1ED094F89434012B1DD039
:101CB000012384F89434206800F0B6FE002084F8F4
:101CC000940410BD01F00F0C0CEBCC018900103115
:101CD000214404310CEBCC0C04EB8C0C4FF0010EC6
:101CE0008CF815E0D2E700234B71DDE70220E8E72E
:101CF00010B504460A4611F0800F20D101F00F0004
:101D000000EBC0039B0003F514732344191D00EB83
:101D1000C00004EB8000002380F8553202F00F026F
:101D20000A7094F89434012B18D0012384F8943469
:101D3000206800F0C9FE002084F8940410BD01F072
:101D40000F0000EBC0039B0010332344191D00EB70
:101D5000C00004EB800001234375DFE70220EDE7BC
:101D600008B501F00F0C0CEBCC01890001F51471E2
:101D7000014404310CEBCC0E00EB8E0ECEF8602249
:101D8000CEF864320023CEF868328EF855328EF8E1
:101D900054C28379012B05D01A46006800F07CFFFD
:101DA000002008BDCEF87022F6E701F00F0101EB2C
:101DB000C10100EB8100D0F86802704708B501F05E
:101DC0000F0C0CEBCC0189001031014404310CEBF9
:101DD000CC0E00EB8E0ECEF82020CEF8243000235F
:101DE000CEF8283001238EF815308EF814C0837990
:101DF000012B05D01A46006800F04EFF002008BDF8
:101E0000CEF83020F6E738B501F00F050279AA4286
:101E100038D304460B4611F0800F1FD101EBC101EE
:101E2000890001F514710144043103EBC30300EB95
:101E30008303002283F8552201238B700D7094F8E0
:101E40009434012B20D0012384F89434206801F0CD
:101E500084F885B1002084F8940438BD05EBC501F1
:101E6000890010310144043105EBC50300EB830305
:101E700001225A75E0E704F29C42A179206801F042
:101E800065F9E7E70120E8E70220E6E701F00F0344
:101E900002799A4230D310B5044611F0800F1ED15A
:101EA00003EBC301890001F514710144043103EB14
:101EB000C30200EB8202002082F8550200228A70E1
:101EC0000B7094F89434012B18D0012384F89434C7
:101ED000206801F06FF8002084F8940410BD03EB33
:101EE000C301890010310144043103EBC30200EB4C
:101EF000820201205075E1E7012070470220EDE7E2
:101F000008B511F0800F0CD101F00F0101EBC101F8
:101F1000890001F5147101440431006800F046FEA7
:101F200008BD01F00F0101EBC1018900103101442E
:101F30000431F2E72DE9F04F83B0044605682846E6
:101F400001F0C1F810B103B0BDE8F08F8046206801
:101F500001F08AF80028F6D005F500639B46D5F815
:101F60000838C3F30D23C4F8D434206801F07CF89A
:101F700010F0020F04D02268536903F0020353618A
:101F8000206801F071F810F0100F16D022689369E4
:101F900023F0100393612E6A06F00F031F4606F428
:101FA000F013B3F5802F6BD0B3F5402F00F08E8087
:101FB0002268936943F010039361206801F054F89C
:101FC00010F4002F40F09880206801F04DF810F4D4
:101FD000802F40F00281206801F046F80028C0F20E
:101FE0008581206801F040F810F4006F0AD0DBF81A
:101FF000083013F0010F40F093812268536903F415
:1020000000635361206801F02FF810F0006F15D0C5
:102010002268536903F00063536194F8CC34002BB9
:1020200040F08281012184F8CC1423685B6DC3F3F6
:102030008303C4F8D034204600F0D4FA206801F0BD
:1020400013F810F4805F40F07381206801F00CF801
:1020500010F4005F40F0CB81206801F005F810F02B
:10206000080F40F0DC81206800F0FEFF10F0800FC8
:1020700000F0EF81AB6923F08003AB610126D8E16A
:1020800047F6F0731E4293D033090093FA00019291
:1020900007EBC70304EB8301C6F30A120E46D1F81F
:1020A0006012284600F036FFD6F86022009BC3F38A
:1020B0000A031A44C6F86022D6F86812019A3A4414
:1020C00004EB82020B44C2F8683271E7082204F282
:1020D0009C41284600F01EFF07EBC70304EB830377
:1020E000D3F86812C6F30A1307EBC70204EB8202A7
:1020F0000B44C2F868325BE7206800F0B9FF06467F
:10210000474635E0394605EB47130122C3F8082B53
:102110002046FFF7E3FC3BE0394605EB4713082276
:10212000C3F8082B2046FFF75DFD34E007EBC7033B
:1021300004EB830393F85732012B42D005EB47138E
:102140000222C3F8082B19F0200F04D005EB471327
:102150002022C3F8082B19F4005F05D005EB4713C4
:102160004FF40052C3F8082B3B4601331F46760854
:10217000002E3FF429AF16F0010FF5D0FBB29A46BE
:102180001946206800F084FF814610F0010FB9D194
:1021900019F0080FC0D119F0100F04D005EB471348
:1021A0001022C3F8082B19F0020FCCD06B6913F082
:1021B000800FBBD0DBF8043043F48063CBF80430ED
:1021C000B4E707EBC70304EB8303002283F857222D
:1021D00051462046FEF7D0FCB0E7206800F050FFE3
:1021E0000646C14625E000992046FEF781FC1AF01C
:1021F000080F04D005EB49130822C3F808291AF088
:10220000100F04D005EB49131022C3F808291AF067
:10221000400F04D005EB49134022C3F808291AF0F7
:10222000020F42D11AF0800F5BD14B460133994621
:102230007608002E3FF4CFAE16F0010FF5D05FFA0E
:1022400089F300931946206800F02BFF824610F0B6
:10225000010FCCD0484609F00F02012101FA02F229
:10226000DBF8343023EA0203CBF8343005EB4913B2
:10227000C3F80819A3798B42B5D109EBC90304EB64
:1022800083031A6AD9690A441A620028ABD109EBA0
:10229000C90304EB83035B6A002BA4D104F29C42C4
:1022A0000121206800F052FF9DE74946284600F0D2
:1022B0008FFA09EBC90304EB8303DB7D012B05D007
:1022C00005EB49130222C3F80829ABE709EBC90360
:1022D00004EB83030022DA7500992046FEF752FCD6
:1022E000EEE749462046FFF7EAFA9EE7DBF80430BE
:1022F00023F00103CBF8043094F8CC34012B08D040
:102300002046FEF733FC2268536903F00043536113
:1023100067E6002184F8CC14204600F063F9F2E768
:102320002046FEF70BFC68E62046FEF707FC85E634
:10233000DBF8043023F00103CBF8043010212068CF
:1023400000F046FA1CE0404605EB48134FF67F319B
:10235000C3F80819D3F8002922F40012C3F80029A1
:10236000C3F8081BD3F8002B22F40012C3F8002B8B
:10237000D3F8002B42F00062C3F8002B431C9846B0
:1023800023794345DFD8DBF81C3043F00113CBF849
:102390001C30E37BEBB1DBF8843043F00B03CBF86C
:1023A0008430DBF8443043F00B03CBF84430D5F8ED
:1023B000003823F4FE63C5F8003804F29C42A1798A
:1023C000206800F0C3FE2268536903F48053536110
:1023D0003BE6DBF8142042F22B031343CBF8143016
:1023E000DBF8103043F00B03CBF81030DFE7206848
:1023F00000F09EFE206800F007FBE071266801F007
:102400005BFC0146E279304600F064F92046FEF7B5
:1024100080FB2268536903F4005353611CE6204695
:10242000FEF771FB2268536903F0080353611AE653
:1024300001362379B3420CD906EBC60304EB8303C0
:1024400093F85732012BF3D1F1B22046FFF758FD34
:10245000EEE7206800F008FE10F4801F25D1206808
:1024600000F002FE10F4001F5AD0012326E00136CE
:102470002379B3421BD905EB4613D3F8002906EBA9
:10248000C60304EB83031B7E012BF0D1002AEEDA96
:1024900006EBC60304EB83030122DA7566F07F01C5
:1024A000C9B22046FFF72CFDE1E70126E0E72268EC
:1024B000536903F480135361D1E7013322799A42BF
:1024C00029D905EB4312D2F8001B03EBC30204EB3E
:1024D000820292F85822012AEFD10029EDDAD4F8CD
:1024E000D42482EA114212F0010FE6D103EBC302B9
:1024F00004EB8202012182F85712AA6942F080029D
:10250000AA616A6912F0800FD7D1DBF8043043F476
:102510000073CBF804302268536903F4001353614D
:10252000206800F0A1FD10F0804F10D1206800F06D
:102530009BFD10F0040F3FF406AD23685D6815F0B5
:10254000040F0DD1226853682B435360FBE42046EF
:10255000FEF71EFB2268536903F080435361E5E7F1
:102560002046FEF71BFBEDE700B596460268506A71
:1025700021B940EA0E409062002000BD8C46936A6B
:1025800000EB1340002308E003F1400102EB81015E
:10259000496800EB11400133DBB20CF1FF318B4293
:1025A000F2D340EA0E400CF13F0102EB8102506091
:1025B000E2E70368596200207047000003460268A2
:1025C0000121C0F8D814002083F8CC04936943F0AB
:1025D00000639361516D024B0B435365704700BF1D
:1025E00003000010704782B000230193019B013368
:1025F0000193019BB3F1706F15D80369002BF5DAD5
:1026000000230193036943F001030361019B01333C
:102610000193019BB3F1706F08D8036913F0010FA8
:10262000F4D1002000E0032002B070470320FBE754
:1026300084B010B5044603A880E80E009DF8113060
:10264000012B1FD1A36B23F48033A363E2681F4BDC
:102650001340E360E36823F44013E3609DF818300F
:10266000012B0AD02046FFF7BEFF9DF80E30012B4C
:102670001CD0BDE8104004B07047E36843F48013F9
:10268000E360EFE7E36843F04003E3602046FFF7D1
:10269000AAFF9DF8153023B9A36B43F48033A363DD
:1026A000E3E7A36B23F48033A363DEE7E36D9BB220
:1026B000E365E26D064B1343E365A36843F006034D
:1026C000A360A36843F02003A360D2E7BFFFBDFF70
:1026D0000000EE03022A0AD00922C36823F47053D3
:1026E000C360C36843EA8223C36000207047204B65
:1026F0000B44204A934229D91F4B0B441F4A934253
:1027000026D91F4B0B441F4A934223D91E4B0B441F
:102710001E4A934220D31E4B0B441E4A93421DD99E
:102720001D4B0B441D4A93421AD31D4B0B441D4AAB
:10273000934217D31C4B0B441C4A934214D31C4B9B
:102740000B441C4A934211D20722C6E70F22C4E76A
:102750000E22C2E70D22C0E70C22BEE70B22BCE727
:102760000A22BAE70922B8E70822B6E70622B4E748
:10277000405327FFFF340C00401E1BFF3F420F0059
:1027800000DC0BFF7F4F1200808CF9FE20D6130077
:1027900060B6E5FE5FE3160000D3CEFE40771B0077
:1027A000C05BB3FEC091210000CA91FE20753800C5
:1027B000E05459FEE09C4100836843F001038360CC
:1027C00000207047836823F0010383600020704776
:1027D00082B000230193019B01330193019BB3F16C
:1027E000706F15D80369002BF5DA00230193890176
:1027F00041F020010161019B01330193019BB3F181
:10280000706F08D8036913F0200FF4D1002000E0A6
:10281000032002B070470320FBE782B0002301933E
:10282000019B01330193019BB3F1706F13D80369CE
:10283000002BF5DA0023019310230361019B013380
:102840000193019BB3F1706F08D8036913F0100F67
:10285000F4D1002000E0032002B070470320FBE722
:10286000D0F800381943C0F8001800207047000065
:1028700084B070B5044605A880E80E00002306E089
:1028800003F1400204EB82020021516001330E2B60
:10289000F6D99DF81E5005BBD4F8043843F0020366
:1028A000C4F80438A36B23F40013A363236843F034
:1028B00040032360236843F0800323600023C4F8AF
:1028C000003E9DF81930012B11D19DF817304BB9FE
:1028D00019462046FFF7C4FF0DE0A36B43F4001335
:1028E000A363EBE701212046FFF7BAFF03E00321D2
:1028F0002046FFF7B5FF10212046FFF769FF064687
:1029000008B101231E462046FFF787FF08B10123C7
:102910001E4604F5006C0023CCF81030CCF81430BF
:10292000CCF81C300DE04FF09040C2F8000902E0F6
:102930000020C2F8000900220A614FF67F328A6047
:1029400001339DF8141099420ED904EB431202F59D
:102950001061D2F800090028EADA002BE3D14FF029
:102960000060C2F80009E6E700230AE0CBB14FF0AF
:10297000904EC2F800EB002202614FF67F32826077
:102980000133994212D904EB431202F53060D2F8B8
:1029900000EBBEF1000FE9DB4FF0000EC2F800EBD8
:1029A000E9E74FF0006EC2F800EBE4E7DCF8103026
:1029B00023F48073CCF810300023A3616FF08043C0
:1029C00063619DF816301BB9A36943F01003A3613E
:1029D000A2690B4B1343A3619DF81A301BB1A36985
:1029E00043F00803A361012D04D03046BDE87040D8
:1029F00004B07047A269034B1343A361F5E700BF1E
:102A000000383C8004000040D0F8083813F006037A
:102A100005D0062B18BF022B03D1022070470020DF
:102A200070470F207047000010B591F800C04B7838
:102A3000012B22D000F5006ED0F81C380CF00F02EC
:102A4000012404FA02F243EA0243C0F81C3800EB06
:102A50004C10D0F8003B13F4004F0CD1D0F8002BF1
:102A60008B68C3F30A03097943EA81431A43154B80
:102A70001343C0F8003B002010BD00F5006ED0F8F5
:102A80001C280CF00F03012404FA03F39BB2134338
:102A9000C0F81C3800EB4C10D0F8003913F4004F8C
:102AA000E9D1D0F800298B68C3F30A03097943EA16
:102AB000814343EA8C531A43024B1343C0F8003955
:102AC000D9E700BF0080001000B50B784A78012AD2
:102AD00025D000EB4313D3F8002B002A54DBD0F8A9
:102AE0003CE80A7802F00F024FF0010C0CFA02F2F7
:102AF0002EEA0242C0F83C28D0F81C28097801F0E0
:102B00000F010CFA01FC22EA0C42C0F81C28D3F891
:102B1000001B244A0A40C3F8002B002000BD00EB34
:102B20004313D3F80029002A21DBD0F83CE80A78C7
:102B300002F00F024FF0010C0CFA02F292B22EEAF0
:102B40000202C0F83C28D0F81C28097801F00F01D7
:102B50000CFA01FC1FFA8CFC22EA0C02C0F81C28BB
:102B6000D3F80019104A0A40C3F80029D5E7D3F872
:102B7000002942F00062C3F80029D3F8002942F08E
:102B80008042C3F80029D0E7D3F8002B42F000625E
:102B9000C3F8002BD3F8002B42F08042C3F8002B7F
:102BA0009DE700BF0078F3EF007833EC82B0024677
:102BB000002301934878012809D00B7802EB4313D6
:102BC000D3F8000B00282DDB002002B070470B78F3
:102BD00002EB4313D3F800C9BCF1000F01DB002066
:102BE000F3E7D3F800C94CF0006CC3F800C90B78C8
:102BF00002EB4313D3F800C94CF0804CC3F800C972
:102C0000019B01330193DDF804C042F210739C452F
:102C1000DBD80B7802EB4313D3F80039002BEFDB42
:102C20000020D2E7D3F8000B40F00060C3F8000B9F
:102C30000B7802EB4313D3F8000B40F08040C3F84D
:102C4000000B019B01330193019842F210739842EB
:102C500008D80B7802EB4313D3F8003B002BF0DBD2
:102C60000020B2E70120B0E710B504469DF8080047
:102C700078B903334FEA930E844608E004EB02333D
:102C800003F5805351F8040B18600CF1010CF44566
:102C9000F4D3002010BD000070B582B016460A784B
:102CA0004B78012B31D000EB421E0EF53063D3F888
:102CB00010C06FF3120CC3F810C0D3F810C06FF33C
:102CC000DC4CC3F810C0002A40F0E6800A690AB163
:102CD0008A680A618A680A621C69C2F31202224386
:102CE0001A611A6942F400221A61012E00F0F7807D
:102CF0000B79012B00F0F980DEF8003B43F0044330
:102D0000CEF8003B002002B070BD0B697BBB00EB2E
:102D10004213D3F810E96FF3DC4EC3F810E9D3F88F
:102D200010E94EF4002EC3F810E9D3F810E96FF360
:102D3000120EC3F810E9012E6CD000EB4212D2F84B
:102D4000003943F00443C2F800390B79012B00F03D
:102D50008A800B69002BD5D0D0F83438097801F07F
:102D60000F0101228A401343C0F83438CAE700EB50
:102D7000421303F51063D3F810E06FF3120EC3F89B
:102D800010E0D3F810E06FF3DC4EC3F810E0B2B9F6
:102D9000D1F808E00C69744501D9C1F810E0D3F806
:102DA00010E04EF4002EC3F810E0D3F810E00C69E8
:102DB000C4F3120C4EEA0C0EC3F810E0BBE7D1F8D6
:102DC00008C00C6904EB0C0E0EF1FF3EBEFBFCFECE
:102DD000D3F810C01FFA8EF425464D4C04EACE4EAF
:102DE0004CEA0E0EC3F810E091F804E0BEF1010FBA
:102DF000DBD1D3F810E02EF0C04EC3F810E0D3F8CA
:102E000010C04FEA457E0EF0C04E4CEA0E0EC3F8DD
:102E100010E0CAE7CB691BB100EB421CCCF81439B7
:102E20000B79012B08D000EB4212D2F8003943F0A5
:102E30000443C2F8003965E7D0F8083813F4807FFE
:102E400008D100EB4211D1F8003943F00053C1F82A
:102E50000039E8E700EB4211D1F8003943F0805324
:102E6000C1F80039DFE7D0F8083813F4807F0CD1BF
:102E7000D2F8003943F00053C2F8003900960B8AAB
:102E80000A78C968FFF7F0FE3CE7D2F8003943F052
:102E90008053C2F80039F1E70A6952B91A698C689F
:102EA000C4F3120422431A611A6942F400221A611F
:102EB0001BE78C682244013AB2FBF4F292B202FBA7
:102EC00004F40C621C69124D05EAC24222431A61E5
:102ED0001A690C6AC4F3120422431A6105E7CA682E
:102EE000002A3FF405AF5A6102E7D0F8083813F41E
:102EF000807F06D1DEF8003B43F00053CEF8003B64
:102F0000FAE6DEF8003B43F08053CEF8003BF3E6F0
:102F10000000F81F00B5844608464FEA920E02F002
:102F20000302002305E00CF58051096840F8041BFA
:102F300001337345F7D37AB10CF5805CDCF800C03F
:102F40000021CBB2DB002CFA03F300F8013B013186
:102F5000013A92B2002AF4D100BD0B784A78012AD6
:102F600014D000EB4310D0F8002B002A06DB2BB165
:102F7000D0F8003B23F08043C0F8003BD0F8003B82
:102F800043F40013C0F8003B0020704700EB4310EF
:102F9000D0F80029002A06DB2BB1D0F8003923F045
:102FA0008043C0F80039D0F8003943F40013C0F86A
:102FB0000039E9E70B784A78012A0ED000EB43107C
:102FC000D0F8003B23F40013C0F8003B0B79023B20
:102FD000DBB2012B15D90020704700EB4310D0F86D
:102FE000003923F40013C0F800390B79023BDBB23F
:102FF000012BF0D8D0F8003943F08053C0F80039E5
:10300000E9E7D0F8003B43F08053C0F8003BE2E72B
:10301000D0F8003823F4FE63C0F80038D0F8003848
:10302000090101F4FE610B43C0F80038002070472D
:10303000D0F8003E23F00303C0F8003ED0F8043877
:1030400023F00203C0F8043800207047D0F8003E97
:1030500023F00303C0F8003ED0F8043843F0020325
:10306000C0F80438002070474269806910407047FA
:10307000D0F8183800F50060C0691840000C70479F
:10308000D0F8183800F50060C069184080B2704769
:1030900000EB4111D1F8082B00F5006040691040A9
:1030A0007047D0F81028D0F8343801F00F0C23FA0C
:1030B0000CF3DB01DBB2134300EB411000F51060B1
:1030C000806818407047406900F00100704738B5CB
:1030D0000546C36823F0C043C360012913D019BB60
:1030E000C36843F08043C3600C460A2004F0E8F84C
:1030F0000A342846FFF7E7FF08B1C72CF5D9C82CDA
:1031000014D0002038BDC36843F00053C3600024CE
:103110000A2004F0D5F80A342846FFF7D4FF012826
:10312000EDD0C72CF4D9EAE70120EBE70120E9E76D
:10313000D0F800396FF30A03C0F80039D0F804382A
:1031400043F48073C0F80438002070478C46016C4B
:10315000144B994203D9D0F8003B002B17DB002118
:10316000C0F8101BD0F8101B41F40021C0F8101B50
:10317000D0F8101B41F01801C0F8101BD0F8101B3C
:1031800041F0C041C0F8101BBCF1010F01D000207C
:103190007047C0F8142BD0F8003B43F08023C0F8F0
:1031A000003BF4E70A30544F002800F0D58238B5D0
:1031B0000446036813F0010F25D0964A136903F003
:1031C0003803926A102B15D0182B0FD06368B3F513
:1031D000803F3FD0002B53D18E4B1A6822F48032AF
:1031E0001A601A6822F480221A6038E002F00302A2
:1031F000022AEBD1874B1B6813F4003F03D06368AE
:10320000002B00F0AB82236813F0020F00F08880DF
:10321000804A1369926A13F038035AD0182B55D09C
:10322000E368002B00F0A9807A490A6822F01902AD
:1032300013430B6004F03EF80546764B1B6813F011
:10324000040F40F0918004F035F8401B0228F4D9B7
:1032500003208AE26F4A136843F480331360636883
:103260002BB304F027F805466A4B1B6813F4003FA4
:10327000C9D104F01FF8401B6428F5D9032074E27B
:10328000B3F5A02F09D0634B1A6822F480321A607C
:103290001A6822F480221A60E1E75E4B1A6842F451
:1032A00080221A601A6842F480321A60D7E704F06C
:1032B00001F80546574B1B6813F4003FA3D003F0F9
:1032C000F9FF401B6428F5D903204EE212F0030FEA
:1032D000A6D1504B1B6813F0040F03D0E368002BFA
:1032E00000F03E824B4A136823F01903E1680B4358
:1032F000136003F0DFFF0546464B1B6813F0040F15
:1033000006D103F0D7FF401B0228F5D903202CE299
:10331000404A536823F0FE43216943EA0163536046
:10332000236813F0100F51D03A4A136903F03803A1
:10333000926A082B39D0182B33D0E369002B6BD05D
:10334000344A136843F08003136003F0B3FF05466B
:10335000304B1B6813F4807F53D103F0ABFF401B4D
:103360000228F5D9032000E22A4A536823F0FE43DD
:10337000216943EA01635360D2E7264A136823F0C8
:103380000103136003F096FF0546224B1B6813F000
:10339000040FC5D003F08EFF401B0228F5D903208F
:1033A000E3E102F00302012AC7D11A4B1B6813F4B0
:1033B000807F03D0E369802B40F0D481154AD36825
:1033C00023F07C53216A43EA0163D360236813F03E
:1033D000080F49D06369002B32D00E4A536F43F077
:1033E0000103536703F066FF05460A4B5B6F13F05A
:1033F000020F39D103F05EFF401B0228F5D90320EC
:10340000B3E1044AD36823F07C53216A43EA0163A1
:10341000D360DBE700440258A54A136823F0800319
:10342000136003F047FF0546A14B1B6813F4807F30
:10343000CCD003F03FFF401B0228F5D9032094E1D4
:103440009B4A536F23F00103536703F033FF054694
:10345000974B5B6F13F0020F06D003F02BFF401B5E
:103460000228F5D9032080E1236813F0200F29D02A
:10347000A3699BB18E4A136843F48053136003F031
:1034800019FF05468A4B1B6813F4005F1AD103F03D
:1034900011FF401B0228F5D9032066E1844A136816
:1034A00023F48053136003F005FF0546804B1B682F
:1034B00013F4005F06D003F0FDFE401B0228F5D98F
:1034C000032052E1236813F0040F21D1636A002B1B
:1034D00000F04A81764A126902F03802182A00F098
:1034E000F180022B75D0724A136823F08073136049
:1034F00003F0E0FE04466E4B1B6813F0007F00F003
:10350000DF8003F0D7FE001B0228F4D903202CE152
:10351000684A136843F48073136003F0CBFE0546DA
:10352000644B1B6813F4807F06D103F0C3FE401B7D
:103530006428F5D9032018E1A368012B0AD00BBB3E
:103540005B4B1A6F22F001021A671A6F22F0040215
:103550001A6704E0564A136F43F001031367A36828
:1035600033B303F0A7FE0546514B1B6F13F0020F58
:10357000ACD103F09FFE401B41F288339842F3D94F
:103580000320F2E0052B09D0494B1A6F22F001020B
:103590001A671A6F22F004021A67E0E7444B1A6FA9
:1035A00042F004021A671A6F42F001021A67D6E766
:1035B00003F080FE05463E4B1B6F13F0020F85D0D3
:1035C00003F078FE401B41F288339842F3D9032080
:1035D000CBE0374A136823F08073136003F06AFE70
:1035E0000546334B1B6813F0007F06D003F062FEE4
:1035F000401B0228F5D90320B7E02D4B996A2E4ACB
:103600000A40A16AE06A41EA00110A439A62226B09
:10361000013AC2F30802616B0139490289B20A43D7
:10362000A16B0139090401F4FE010A43E16B013980
:10363000090601F0FE410A431A63DA6A22F0010228
:10364000DA625A6B6FF3CF02A16C42EAC1025A638D
:10365000DA6A22F00C02216C0A43DA62DA6A22F09A
:103660000202616C0A43DA62DA6A42F48032DA6298
:10367000DA6A42F40032DA62DA6A42F48022DA620A
:10368000DA6A42F00102DA621A6842F080721A6065
:1036900003F010FE0446064B1B6813F0007F0DD1AB
:1036A00003F008FE001B0228F5D903205DE000BFEF
:1036B00000440258004802580CFCFFFF002054E070
:1036C000002052E030498A6A086B012B4ED002F08C
:1036D0000303A16A8B424BD1C2F30512E36A9A42FB
:1036E00048D1C0F30802236B013B9A4244D1C0F396
:1036F0004622636B013B9A4240D1C0F30642A36B62
:10370000013B9A423CD1C0F30660E36B013B984217
:1037100038D11D4B5B6BC3F3CC03A26C9A4201D131
:10372000002022E0184AD36A23F00103D36203F099
:10373000C1FD054603F0BEFDA842FBD0124A536B03
:103740006FF3CF03A16C43EAC1035363D36A43F021
:103750000103D362002008E001207047012004E04B
:10376000012002E0012000E0184638BD0120FCE7FE
:103770000120FAE70120F8E70120F6E70120F4E74D
:103780000120F2E70120F0E70044025870B588B04C
:103790000E46154610BB234CD4F8E03043F001032D
:1037A000C4F8E030D4F8E03003F001030193019B4A
:1037B0004FF480730393022304930323069305902D
:1037C000079003A9184801F079FF236923F0FE73DD
:1037D0002A4632431343236108B070BD114CD4F81C
:1037E000E03043F00403C4F8E030D4F8E03003F0F4
:1037F00004030293029B4FF4007303930223049388
:103800000323069300230593079303A9074801F0B8
:1038100055FF236923F07E4346EAC5121343236113
:10382000DAE700BF004402580000025800080258BE
:10383000744B1B6903F03803102B00F0DD80182B4C
:103840000FD0002B40F0DA806E4B1B6813F0200F76
:1038500000F0D6806B4B1B68C3F3C1036A48D840A5
:103860007047684B9A6A02F00302D3F828C0CCF381
:103870000510D96A01F001015B6BC3F3CC0301FBB6
:1038800003F307EE903AF8EE677A1CF47C7F00F0C1
:10389000B880012A4AD0022A74D0002A40F08F80D2
:1038A000584B1B6813F0200F23D056490A68C2F307
:1038B000C102554BD34007EE103AF8EE476A07EEC7
:1038C000100AB8EE476A86EE867A0B6BC3F30803DC
:1038D00006EE903AF8EE666A9FED4C6A67EE867ADD
:1038E00076EEA77AF7EE006A77EEA67A27EE277AC9
:1038F00038E007EE100AF8EE476A9FED456A86EE5B
:10390000267A404B1B6BC3F3080306EE903AF8EEA1
:10391000666A9FED3E6A67EE867A76EEA77AF7EEE4
:10392000006A77EEA67A27EE277A1BE007EE100AE8
:10393000F8EE476A9FED376A86EE267A314B1B6BAD
:10394000C3F3080306EE903AF8EE666A9FED2F6A1D
:1039500067EE867A76EEA77AF7EE006A77EEA67AB9
:1039600027EE277A274B1B6BC3F34623013307EE61
:10397000903AF8EE677AC7EE276AFCEEE67A17EE21
:10398000900A704707EE100AF8EE476A9FED226A28
:1039900086EE267A1B4B1B6BC3F3080306EE903AA8
:1039A000F8EE666A9FED196A67EE867A76EEA77A78
:1039B000F7EE006A77EEA67A27EE277AD2E707EECF
:1039C000100AF8EE476A9FED136A86EE267A0D4BD1
:1039D0001B6BC3F3080306EE903AF8EE666A9FEDA0
:1039E0000B6A67EE867A76EEA77AF7EE006A77EED4
:1039F000A67A27EE277AB5E7084870470848704747
:103A000001487047004402580090D003000000397C
:103A10000024744C0024744A20BCBE4B40787D01C5
:103A200000093D00002800F0328170B50D460446C3
:103A30009B4B1B6803F00F038B420BD2984A136811
:103A400023F00F030B431360136803F00F038B4243
:103A500040F01F81236813F0040F0CD02269914BB2
:103A60009B6903F070039A4205D98E498B6923F054
:103A700070031A438A61236813F0080F0CD062693F
:103A8000884BDB6903F070039A4205D98549CB69FD
:103A900023F070031A43CA61236813F0100F0CD08F
:103AA000A269804BDB6903F4E0639A4205D97D4942
:103AB000CB6923F4E0631A43CA61236813F0200F33
:103AC0000CD0E269774B1B6A03F070039A4205D968
:103AD00074490B6A23F070031A430A62236813F0D7
:103AE000020F0CD0E2686F4B9B6903F00F039A4200
:103AF00005D96C498B6923F00F031A438A61236847
:103B000013F0010F41D0674A936923F47063A168F1
:103B10000B4393616368022B0AD0032B27D0012B40
:103B20002CD0604A126812F0040F06D10120ADE0DB
:103B3000126812F4003F00F0AE805A490A6922F080
:103B4000070213430B6103F0B5FB0646554B1B6997
:103B500003F038036268B3EBC20F16D003F0AAFB80
:103B6000801B41F288339842F0D903208EE04D4A01
:103B7000126812F0007FE0D1012087E0494A126804
:103B800012F4807FD9D1012080E0236813F0020F66
:103B90000CD0E268434B9B6903F00F039A4205D2B5
:103BA00040498B6923F00F031A438A613C4B1B6821
:103BB00003F00F03AB420AD9394A136823F00F030D
:103BC0002B431360136803F00F03AB4265D12368E6
:103BD00013F0040F0CD02269324B9B6903F0700381
:103BE0009A4205D22F498B6923F070031A438A61E8
:103BF000236813F0080F0CD062692A4BDB6903F0CD
:103C000070039A4205D22749CB6923F070031A4307
:103C1000CA61236813F0100F0CD0A269214BDB6935
:103C200003F4E0639A4205D21E49CB6923F4E063B2
:103C30001A43CA61236813F0200F0CD0E269194BB4
:103C40001B6A03F070039A4205D216490B6A23F0EF
:103C500070031A430A62FFF7EBFD12498B69C3F345
:103C60000323114AD35C03F01F03D8408B6903F090
:103C70000F03D35C03F01F0320FA03F30B4A136016
:103C80000B4B18600B4B1868FCF734FD70BD01201E
:103C900070470120FAE70120F8E70120F6E700BFAE
:103CA000002000520044025824E5000800000020D3
:103CB000040000207400002008B5FFF7B9FD0B4A8E
:103CC0009369C3F303230A49CB5C03F01F0320FA73
:103CD00003F3926902F00F02885C00F01F0023FAE0
:103CE00000F0044A1060044A136008BD0044025802
:103CF00024E50008000000200400002008B5FFF7BC
:103D0000DBFF054BDB69C3F30213044AD35C03F00A
:103D10001F03D84008BD00BF0044025824E5000836
:103D200008B5FFF7C9FF054BDB69C3F30223044A5B
:103D3000D35C03F01F03D84008BD00BF0044025805
:103D400024E500083F230360114B1A6902F00702C3
:103D500042609A6902F4706282609A6902F00F020E
:103D6000C2609A6902F070020261DA6902F07002C0
:103D70004261DA6902F4E06282611B6A03F0700357
:103D8000C361044B1B6803F00F030B60704700BF57
:103D90000044025800200052404B9B6A03F003038A
:103DA000032B79D070B505460E463C4A136823F0C4
:103DB0008063136003F07EFA0446384B1B6813F0EF
:103DC000006F06D003F076FA031B022BF5D903200F
:103DD00070BD324B9A6A22F47C32296842EA013281
:103DE0009A626A68013AC2F30802A9680139490275
:103DF00089B20A43E9680139090401F4FE010A4362
:103E000029690139090601F0FE410A439A63DA6A19
:103E100022F0C00269690A43DA62DA6A22F02002FB
:103E2000A9690A43DA62DA6A22F01002DA62DA6B0E
:103E30006FF3CF02E96942EAC102DA63DA6A42F05B
:103E40001002DA62C6B9154AD36A43F40023D3627A
:103E5000124A136843F08063136003F02BFA0446A0
:103E60000E4B1B6813F0006F14D103F023FA001BF4
:103E70000228F5D90320ABE7012E05D0074AD36A03
:103E800043F40013D362E3E7044AD36A43F4801394
:103E9000D362DDE700209BE7012070470044025811
:103EA000404B9B6A03F00303032B79D070B50546A2
:103EB0000E463C4A136823F08053136003F0FAF96E
:103EC0000446384B1B6813F0005F06D003F0F2F98C
:103ED000031B022BF5D9032070BD324B9A6A22F0E6
:103EE0007C72296842EA01529A626A68013AC2F316
:103EF0000802A9680139490289B20A43E96801390F
:103F0000090401F4FE010A4329690139090601F097
:103F1000FE410A431A64DA6A22F4406269690A437C
:103F2000DA62DA6A22F40072A9690A43DA62DA6AAA
:103F300022F48072DA625A6C6FF3CF02E96942EAC6
:103F4000C1025A64DA6A42F48072DA62C6B9154A6A
:103F5000D36A43F48003D362124A136843F0805358
:103F6000136003F0A7F904460E4B1B6813F0005FC3
:103F700014D103F09FF9001B0228F5D90320ABE709
:103F8000012E05D0074AD36A43F08073D362E3E77A
:103F9000044AD36A43F40003D362DDE700209BE7C1
:103FA0000120704700440258F8B50446036813F036
:103FB000006F2FD0436EB3F5001F25D015D8E3B1A5
:103FC000B3F5801F0ED102210830FFF7E5FE05464C
:103FD000A5BB954A136D23F44013616E0B43136523
:103FE000002619E00126354616E0B3F5401F01D141
:103FF0000025EEE7012635460EE08B4AD36A43F4EE
:104000000033D3620025E4E702212830FFF748FFA0
:104010000546DDE700263546236813F4807F2ED061
:10402000A36D022B23D00ED89BB1012B08D1002108
:1040300004F10800FFF7B0FE05460FE02E46EBE75F
:10404000012635461BE0033B012B07D901263546E7
:1040500015E0754AD36A43F40033D36275B9724AE6
:10406000136D23F00703A16D0B43136507E00021D7
:1040700004F12800FFF714FF0546EFE72E462368FA
:1040800013F4806F2DD0D4F8A430B3F5800F3DD059
:104090000DD8C3B1B3F5001F06D1002104F108000B
:1040A000FFF77AFE054613E00126354619E0B3F521
:1040B000000F0DD0B3F5200F0AD0B3F5C00F07D015
:1040C000012635460DE0584AD36A43F40033D362E3
:1040D0001DBB554A936D23F46003D4F8A4100B4321
:1040E0009365236813F4006F37D0D4F8A830B3F188
:1040F000007F5ED016D80BB3B3F1807F0FD10021C3
:1041000004F10800FFF748FE05461CE0002104F119
:104110002800FFF7C5FE0546DAE72E46E1E701264F
:1041200035461AE0B3F1806F0DD0B3F1A06F0AD01D
:10413000B3F1407F07D0012635460EE03A4AD36AF4
:1041400043F40033D362002D3AD1374A936D23F004
:10415000E063D4F8A8100B439365236813F0007F45
:1041600013D0E36C202B35D02FD833B1102B29D1AD
:104170002D4AD36A43F40033D36295BB2A4AD36CE9
:1041800023F03003E16C0B43D364236813F4805FA6
:104190004DD0E36DB3F5005F3FD027D87BB3B3F5C7
:1041A000805F20D1002104F10800FFF7F5FD0546EE
:1041B0002AE0002104F12800FFF772FE0546C2E75D
:1041C0002E46CAE701263546DFE7302BD5D001263B
:1041D0003546DAE7022104F10800FFF7DDFD054668
:1041E000CBE72E46D1E70126354620E0B3F5405F08
:1041F0000AD0B3F5804F07D00126354617E00A4AAA
:10420000D36A43F40033D36285B9074A136D23F4AC
:10421000E043E16D0B43136509E0002104F1280040
:10422000FFF73EFE0546EFE7004402582E4623689E
:1042300013F4005F17D0236EB3F5003F51D044D87C
:1042400043B1B3F5803F3DD1012104F10800FFF7F0
:10425000A3FD0546002D4BD1324A136D23F4E02314
:10426000216E0B431365236813F4804F19D0D4F8E3
:10427000AC30B3F1005F4CD03FD843B1B3F1805FB5
:1042800038D1012104F10800FFF786FD0546002D15
:1042900046D1244A936D23F0E043D4F8AC100B438D
:1042A0009365236813F4004F4DD0E36EB3F1805F44
:1042B0003AD0B3F1005F00F07181002B39D00126B4
:1042C000354640E001263546CDE7B3F5802FC1D015
:1042D000B3F5A02FBED0B3F5403FBBD00126354685
:1042E000C1E7012104F12800FFF7DAFD0546B1E737
:1042F0002E46B8E701263546D3E7B3F1804FC6D046
:10430000B3F1A04FC3D0B3F1405FC0D00126354612
:10431000C7E7012104F12800FFF7C2FD0546B6E713
:104320002E46BEE700440258AA4AD36A43F400333B
:10433000D362002D40F03981A64A136D23F040531B
:10434000E16E0B431365236813F0807F18D0A36CD4
:10435000022B00F0358100F22D813BB1012B40F0A2
:1043600026819C4AD36A43F40033D362002D40F087
:104370002E81984AD36C23F00303A16C0B43D364C2
:10438000236813F4800F40F02781236813F0010F96
:1043900019D0A36F102B00F0928100F2848143B1F9
:1043A000082B40F07D81012104F10800FFF7F4FCA7
:1043B0000546002D40F08A81864A536D23F038036C
:1043C000A16F0B435365236813F0020F19D0636F7D
:1043D000022B00F0878100F27E8143B1012B40F077
:1043E0007781012104F10800FFF7D6FC0546002D76
:1043F00040F07F81774A536D23F00703616F0B43D1
:104400005365236813F0040F1BD0D4F89030022BAF
:1044100000F07B8100F2728143B1012B40F06B818F
:10442000012104F10800FFF7B7FC0546002D40F01C
:104430007381684A936D23F00703D4F890100B43FF
:104440009365236813F0200F1DD0D4F88C30B3F19E
:10445000005F00F0758100F264814BB1B3F1805FC1
:1044600040F05C81002104F10800FFF795FC05464F
:10447000002D40F06C81574A536D23F0E043D4F88F
:104480008C100B435365236813F0400F1DD0D4F8F4
:104490009830B3F5006F00F06E8100F25D814BB192
:1044A000B3F5806F40F05581002104F10800FFF75B
:1044B00073FC0546002D40F06581464A936D23F458
:1044C000E053D4F898100B439365236813F0800FE2
:1044D0001DD0D4F89C30B3F5804F00F0678100F216
:1044E00056814BB1B3F5005F40F04E81002104F1DD
:1044F0000800FFF751FC0546002D40F05E81354A6B
:10450000936D23F46043D4F89C100B4393652368A8
:1045100013F0080F0DD0D4F88030B3F5805F00F0B1
:104520004E812C4A536D23F44053D4F880100B4332
:104530005365236813F0100F0DD0D4F89430B3F501
:10454000807F00F04681234A936D23F44073D4F8B2
:1045500094100B439365236813F4002F00F04E81F1
:10456000D4F8A030B3F5803F00F03D81B3F5003FB3
:1045700008D0002B40F03E81194604F10800FFF7F7
:104580000BFC0546002D40F03881124A936D23F450
:104590004033D4F8A0100B4393652FE1012104F1BF
:1045A0000800FFF7F9FB0546C3E62E46CBE60126D9
:1045B0003546E5E6032B3FF4D9AE01263546DFE666
:1045C000022104F10800FFF7E7FB0546CEE62E4680
:1045D000D6E600BF00440258AD4A136843F4807326
:1045E000136002F067FE0746A94B1B6813F4807F37
:1045F00005D102F05FFEC01B6428F5D90325002D0C
:104600004AD1A44B1B6FD4F8B020534013F4407F21
:104610000CD0A04B1A6F22F44072196F41F4803114
:104620001967196F21F4803119671A67D4F8B0300F
:10463000B3F5807F15D08DBBD4F8B03003F4407251
:10464000B2F5407F1ED0934A136923F47C53136163
:1046500090490B6FD4F8B020C2F30B0213430B67E1
:1046600093E602F027FE07468A4B1B6F13F0020FFA
:10467000E1D102F01FFEC01B41F288339842F3D90A
:104680000325D8E78348026922F47C52824901EA73
:10469000131313430361DBE72E4676E62E4674E6DA
:1046A000012635468FE6202B3FF483AE282B3FF4BE
:1046B00080AE182B3FF47DAE0126354683E60121FE
:1046C00004F12800FFF7ECFB054672E62E467AE679
:1046D0000126354695E6033B022B7FF688AE012680
:1046E00035468EE6012104F12800FFF7D9FB054687
:1046F0007DE62E4685E601263546A2E6033B022BE3
:104700007FF694AE012635469BE6012104F1280090
:10471000FFF7C6FB054689E62E4692E6012635469A
:10472000B1E6B3F1804F3FF4A3AEB3F1A04F3FF435
:104730009FAEB3F1405F3FF49BAE01263546A2E643
:10474000022104F12800FFF7ABFB054690E62E4658
:1047500099E601263546B8E6B3F5805F3FF4AAAE88
:10476000B3F5A05F3FF4A6AEB3F5406F3FF4A2AE41
:1047700001263546A9E6022104F12800FFF790FB47
:10478000054697E62E46A0E601263546BFE6B3F578
:10479000004F3FF4B1AEB3F5204F3FF4ADAEB3F5EB
:1047A000C04F3FF4A9AE01263546B0E6022104F120
:1047B0002800FFF775FB05469EE62E46A7E6022178
:1047C00004F12800FFF76CFB00283FF4AAAE012695
:1047D000A7E6022104F12800FFF762FB00283FF45E
:1047E000B2AE0126AFE6022104F12800FFF758FB24
:1047F0000546C7E60126354600E02E46236813F439
:10480000802F24D0D4F88430B3F5001F14D0B3F532
:10481000401F07D0B3F5801F15D11E4AD36A43F459
:104820000033D36295B91B4A536D23F44013D4F877
:1048300084100B4353650AE0012104F12800FFF7BF
:104840002FFB0546EEE70126354600E02E4623689D
:1048500013F4803F06D0236D03B3B3F5803F2BD014
:1048600001263546236813F0005F2ED1236813F428
:10487000003F44D0E36FB3F5807F32D02ED9B3F53B
:10488000007F33D0B3F5407F30D0012637E000BF42
:104890000048025800440258CFFFFF005F4AD36A25
:1048A00043F40033D36275B95C4AD36C23F480338C
:1048B000216D0B43D364D5E7022104F10800FFF713
:1048C0006BFA0546EFE72E46CCE7022104F12800FB
:1048D000FFF7E6FA0028C9D00126C7E733B1012661
:1048E0000DE04E4AD36A43F40033D362002D5CD10D
:1048F0004A4A536D23F44073E16F0B4353652368B9
:1049000013F4801F06D0454A136D23F00043216F36
:104910000B431365236813F4001F06D03F4A136D41
:1049200023F08073A16E0B431365236813F0804F4F
:1049300009D03A4B1A6922F400421A611A69D4F874
:10494000B4100A431A612368002B06DA334AD36C89
:1049500023F04053616D0B43D364236813F4000FBD
:1049600007D02E4A536D23F44003D4F888100B432C
:104970005365636813F0010F19D1636813F0020FD8
:104980001ED1636813F0040F23D1636813F0080F7E
:1049900028D1636813F0100F2DD1636813F0200F36
:1049A00032D106B101263046F8BD2E46A7E70021D8
:1049B00004F10800FFF7F0F90028DED00646DCE736
:1049C000012104F10800FFF7E7F90028D9D00646D5
:1049D000D7E7022104F10800FFF7DEF90028D4D060
:1049E0000646D2E7002104F12800FFF759FA002813
:1049F000CFD00646CDE7012104F12800FFF750FA99
:104A00000028CAD00646C8E7022104F12800FFF7B3
:104A100047FA0028C5D00126C5E700BF0044025868
:104A200008B5FFF749F9054B1B6AC3F30213044AA3
:104A3000D35C03F01F03D84008BD00BF00440258F8
:104A400024E5000800B5794B9A6AD3F828C0CCF366
:104A5000053ED96AC1F30011DB6BC3F3CC0301FB44
:104A600003F31CF47C3F00F0DB8002F0030207EE4E
:104A7000903AF8EE677A012A4BD0022A00F096802D
:104A8000002A40F0B080694B1B6813F0200F23D040
:104A900066490A68C2F3C102654BD34007EE103A7B
:104AA000F8EE476A07EE10EAB8EE476A86EE867AB5
:104AB0008B6BC3F3080306EE903AF8EE666A9FED3F
:104AC0005D6A67EE867A76EEA77AF7EE006A77EE91
:104AD000A67A27EE277A38E007EE10EAF8EE476A62
:104AE0009FED556A86EE267A504B9B6BC3F3080305
:104AF00006EE903AF8EE666A9FED4E6A67EE867AA9
:104B000076EEA77AF7EE006A77EEA67A27EE277A96
:104B10001BE007EE10EAF8EE476A9FED486A86EE62
:104B2000267A424B9B6BC3F3080306EE903AF8EEED
:104B3000666A9FED406A67EE867A76EEA77AF7EEB0
:104B4000006A77EEA67A27EE277A384A936BC3F38A
:104B5000462307EE903AF8EE677AF7EE006A77EEB2
:104B6000A67A87EE276ABCEEC66A80ED006A936B70
:104B7000C3F3064307EE903AF8EE677A77EEA67A2B
:104B800087EE276ABCEEC66A80ED016A936BC3F3B9
:104B9000066307EE903AF8EE677A77EEA67AC7EEEC
:104BA000276AFCEEE66AC0ED026A00BD07EE10EA75
:104BB000F8EE476A9FED226A86EE267A1B4B9B6BC6
:104BC000C3F3080306EE903AF8EE666A9FED196AA1
:104BD00067EE867A76EEA77AF7EE006A77EEA67A27
:104BE00027EE277AB1E707EE10EAF8EE476A9FED65
:104BF000136A86EE267A0D4B9B6BC3F3080306EE11
:104C0000903AF8EE666A9FED0B6A67EE867A76EE6A
:104C1000A77AF7EE006A77EEA67A27EE277A94E76E
:104C20000023036043608360BFE700BF0044025875
:104C30000090D003000000390024744C0024744A12
:104C400020BCBE4B00B5794B9A6AD3F828C0CCF390
:104C5000055ED96AC1F300215B6CC3F3CC0301FB91
:104C600003F31CF07C7F00F0DB8002F0030207EE10
:104C7000903AF8EE677A012A4BD0022A00F096802B
:104C8000002A40F0B080694B1B6813F0200F23D03E
:104C900066490A68C2F3C102654BD34007EE103A79
:104CA000F8EE476A07EE10EAB8EE476A86EE867AB3
:104CB0000B6CC3F3080306EE903AF8EE666A9FEDBC
:104CC0005D6A67EE867A76EEA77AF7EE006A77EE8F
:104CD000A67A27EE277A38E007EE10EAF8EE476A60
:104CE0009FED556A86EE267A504B1B6CC3F3080382
:104CF00006EE903AF8EE666A9FED4E6A67EE867AA7
:104D000076EEA77AF7EE006A77EEA67A27EE277A94
:104D10001BE007EE10EAF8EE476A9FED486A86EE60
:104D2000267A424B1B6CC3F3080306EE903AF8EE6A
:104D3000666A9FED406A67EE867A76EEA77AF7EEAE
:104D4000006A77EEA67A27EE277A384A136CC3F307
:104D5000462307EE903AF8EE677AF7EE006A77EEB0
:104D6000A67A87EE276ABCEEC66A80ED006A136CED
:104D7000C3F3064307EE903AF8EE677A77EEA67A29
:104D800087EE276ABCEEC66A80ED016A136CC3F336
:104D9000066307EE903AF8EE677A77EEA67AC7EEEA
:104DA000276AFCEEE66AC0ED026A00BD07EE10EA73
:104DB000F8EE476A9FED226A86EE267A1B4B1B6C43
:104DC000C3F3080306EE903AF8EE666A9FED196A9F
:104DD00067EE867A76EEA77AF7EE006A77EEA67A25
:104DE00027EE277AB1E707EE10EAF8EE476A9FED63
:104DF000136A86EE267A0D4B1B6CC3F3080306EE8E
:104E0000903AF8EE666A9FED0B6A67EE867A76EE68
:104E1000A77AF7EE006A77EEA67A27EE277A94E76C
:104E20000023036043608360BFE700BF0044025873
:104E30000090D003000000390024744C0024744A10
:104E400020BCBE4B00B5794B9A6AD3F828C0CCF38E
:104E5000051ED96A01F001015B6BC3F3CC0301FBB2
:104E600003F31CF47C7F00F0DB8002F0030207EE0A
:104E7000903AF8EE677A012A4BD0022A00F0968029
:104E8000002A40F0B080694B1B6813F0200F23D03C
:104E900066490A68C2F3C102654BD34007EE103A77
:104EA000F8EE476A07EE10EAB8EE476A86EE867AB1
:104EB0000B6BC3F3080306EE903AF8EE666A9FEDBB
:104EC0005D6A67EE867A76EEA77AF7EE006A77EE8D
:104ED000A67A27EE277A38E007EE10EAF8EE476A5E
:104EE0009FED556A86EE267A504B1B6BC3F3080381
:104EF00006EE903AF8EE666A9FED4E6A67EE867AA5
:104F000076EEA77AF7EE006A77EEA67A27EE277A92
:104F10001BE007EE10EAF8EE476A9FED486A86EE5E
:104F2000267A424B1B6BC3F3080306EE903AF8EE69
:104F3000666A9FED406A67EE867A76EEA77AF7EEAC
:104F4000006A77EEA67A27EE277A384A136BC3F306
:104F5000462307EE903AF8EE677AF7EE006A77EEAE
:104F6000A67A87EE276ABCEEC66A80ED006A136BEC
:104F7000C3F3064307EE903AF8EE677A77EEA67A27
:104F800087EE276ABCEEC66A80ED016A136BC3F335
:104F9000066307EE903AF8EE677A77EEA67AC7EEE8
:104FA000276AFCEEE66AC0ED026A00BD07EE10EA71
:104FB000F8EE476A9FED226A86EE267A1B4B1B6B42
:104FC000C3F3080306EE903AF8EE666A9FED196A9D
:104FD00067EE867A76EEA77AF7EE006A77EEA67A23
:104FE00027EE277AB1E707EE10EAF8EE476A9FED61
:104FF000126A86EE267A0D4B1B6BC3F3080306EE8E
:10500000903AF8EE666A9FED0B6A67EE867A76EE66
:10501000A77AF7EE006A77EEA67A27EE277A94E76A
:105020000023036043608360BFE700BF0044025871
:105030000090D003000000390024744C0024744A0E
:1050400020BCBE4B00B58BB0A0F580730B4328D0BD
:10505000A0F580630B437DD0A0F500630B4300F007
:10506000D680A0F580530B4300F02E81A0F50053AD
:105070000B4300F08B81A0F500230B4300F0D4819B
:10508000A0F580330B4300F01782A0F580430B435B
:1050900000F02F82A0F50040084300F07B82002042
:1050A000A0E2994B1B6D03F00703022B32D014D9F9
:1050B000032B00F09682042B1FD1934AD36C03F08C
:1050C0004053126812F0040F2FD073BB8E4B1B6835
:1050D000C3F3C1038D48D84084E283B1012B0AD1C8
:1050E000894B186810F0006000F07C8204A8FFF77C
:1050F000A9FC049876E2002074E2002072E2824B60
:10510000186810F0007000F06D8207A8FFF79AFE93
:10511000089867E27C4B186810F0005000F062823B
:1051200001A8FFF78FFD01985CE2774A126812F43C
:10513000807F03D0B3F1805F00F05682724A12681C
:1051400012F4003F00F05282B3F1005F00F0508291
:10515000002047E26C4B9B6D03F46003B3F5800FB6
:1051600035D016D9B3F5C00F00F04482B3F5000F67
:1051700020D1654AD36C03F04053126812F0040F3B
:1051800030D07BBB604B1B68C3F3C1035F48D84082
:1051900028E28BB1B3F5001F0AD15B4B186810F001
:1051A000006000F01F8204A8FFF74CFC049819E28D
:1051B000002017E2002015E2534B186810F0007031
:1051C00000F0108207A8FFF73DFE08980AE24E4B58
:1051D000186810F0005000F0058201A8FFF732FDBA
:1051E0000198FFE1484A126812F4807F03D0B3F1BE
:1051F000805F00F00182444A126812F4003F00F020
:10520000FD81B3F1005F00F0FB810020EAE13E4B3D
:105210009B6D03F0E063B3F1007F35D016D9B3F195
:10522000407F00F0EF81B3F1806F20D1364AD36C1C
:1052300003F04053126812F0040F30D07BBB324BA6
:105240001B68C3F3C1033148D840CBE18BB1B3F144
:10525000807F0AD12C4B186810F0006000F0C281EA
:1052600004A8FFF7EFFB0498BCE10020BAE100209E
:10527000B8E1254B186810F0007000F0B38107A862
:10528000FFF7E0FD0898ADE11F4B186810F00050E3
:1052900000F0A88101A8FFF7D5FC0198A2E11A4A05
:1052A000126812F4807F03D0B3F1805F00F0AC810C
:1052B000154A126812F4003F00F0A881B3F1005FB4
:1052C00000F0A68100208DE10F4B1B6D03F4E0433D
:1052D000B3F5005F3AD01BD9B3F5405F00F09A8177
:1052E000B3F5804F25D1084AD36C03F040531268C0
:1052F00012F0040F35D0002B33D1034B1B68C3F3DE
:10530000C1030248D8406DE1004402580090D00328
:105310008BB1B3F5805F0AD19A4B186810F000602A
:1053200000F0608104A8FFF78DFB04985AE100208B
:1053300058E1002056E1934B186810F0007000F01F
:10534000518107A8FFF77EFD08984BE18D4B186847
:1053500010F0005000F0468101A8FFF773FC01989F
:1053600040E1884A126812F4807F03D0B3F1805F75
:1053700000F05281834A126812F4003F00F04E811F
:10538000B3F1005F00F04C8100202BE17D4B1B6DE1
:1053900003F4E023B3F5403F32D00BD8B3F5803FA0
:1053A00018D0B3F5003F20D013B9FEF7A7FC19E1E0
:1053B000002017E1B3F5802F2ED0B3F5A02F07D131
:1053C000704B186810F4003000F00C816E4809E151
:1053D000002007E16B4B186810F0006000F00281BC
:1053E00004A8FFF72FFB0598FCE0664B186810F047
:1053F000005000F0F78001A8FFF724FC0298F1E0CC
:10540000604B186810F0040000F0EC801B68C3F3D8
:10541000C1035E48D840E5E05A4B186810F480702C
:1054200000F0E0805A48DDE0564B9B6D03F44033BA
:10543000B3F5803F10D0B3F5003F18D0002B40F0FB
:10544000F180504B186810F0006000F0CB8004A889
:10545000FFF7F8FA0498C5E04A4B186810F00050BE
:1054600000F0C08001A8FFF7EDFB0398BAE0454AC1
:10547000D36C03F04053126812F0040F07D033B915
:10548000404B1B68C3F3C1034048D840AAE03D4AE3
:10549000126812F4807F03D0B3F1805F00F0C48003
:1054A000384A126812F4003F00F0C080B3F1005F88
:1054B00000F0BE80002095E0324BDB6C13F48033AB
:1054C00002D063B918468DE02E4B186810F00070BA
:1054D00000F0888007A8FFF7B5FC089882E0294B08
:1054E000186810F000607DD004A8FFF7ABFA0698AA
:1054F00078E0244B9B6D03F0E043B3F1405F2FD085
:105500000BD8B3F1805F17D0B3F1005F1ED013B991
:10551000FFF786FA66E0002064E0B3F1804F2AD0FE
:10552000B3F1A04F06D1174B186810F4003059D0D2
:10553000154857E0002055E0124B186810F0006045
:1055400050D004A8FFF77EFA05984BE00D4B186881
:1055500010F0005046D001A8FFF774FB029841E01C
:10556000084B186810F004003CD01B68C3F3C1035B
:105570000648D84036E0034B186810F4807031D0EC
:1055800003482FE00044025840787D010090D0038A
:1055900000093D00284B1B6D03F04053B3F1805FC1
:1055A0000BD0B3F1005F12D0002B43D1224B18680F
:1055B00010F4003016D0214814E01F4B186810F08A
:1055C00000700FD007A8FFF73DFC08980AE01A4BBF
:1055D000186810F0006005D004A8FFF733FA0598AA
:1055E00000E017480BB000BD1648FBE70020F9E7C4
:1055F0001248F7E71248F5E71248F3E70020F1E711
:105600000E48EFE70E48EDE70E48EBE70020E9E72C
:105610000A48E7E70A48E5E70A48E3E70020E1E748
:105620000648DFE70020DDE70648DBE70020D9E792
:105630000248D7E70020D5E70044025840787D01B2
:105640000080BB0000093D0010B50446194BD3F89B
:10565000942042F00202C3F89420D3F8942022F060
:105660000202C3F8942001F03FFE41F20303984286
:1056700003D86368B3F1405F17D0226863681A43A8
:10568000A3681A43E3681343226943EA02420A4BC0
:105690005A601A6822F47C52616942EA01221A6057
:1056A0001A6842F060021A6010BD2268A3681A43AB
:1056B000E8E700BF004402580084004070B582B0A3
:1056C000864600236CE0DEF808405D000320A84019
:1056D00024EA0004C868A8402043CEF80800DEF899
:1056E000044024EA0C044868C0F3001098402043AA
:1056F000CEF8040066E0DC0808345EF8240003F00D
:105700000705AD004FF00F0C0CFA05FC20EA0C0C5D
:105710000869A84040EA0C004EF8240068E009201F
:1057200000E0002000FA0CF028430234644D45F8F4
:1057300024004FF0B0400468D04324EA02054E68CC
:1057400016F4801F01D042EA04054FF0B0442560F2
:10575000646800EA04054E6816F4001F01D042EAAE
:1057600004054FF0B0446560D4F8844000EA0405B5
:105770004E6816F4003F01D042EA04054FF0B044F1
:10578000C4F88450D4F8804020404D6815F4803F20
:1057900001D042EA04004FF0B042C2F88000013369
:1057A0000A6832FA03F000F088804FF0010C0CFA1E
:1057B00003FC1CEA0202F2D0486800F00300013842
:1057C000012880D9486800F0030003280BD0DEF8D8
:1057D0000C405D000320A84024EA00048868A8402B
:1057E0002043CEF80C00486800F00300022882D065
:1057F000DEF800005C004FF0030C0CFA04FC20EA19
:105800000C0C486800F00300A04040EA0C00CEF801
:105810000000486810F4403FC1D02A48D0F8F44056
:1058200044F00204C0F8F440D0F8F40000F00200A4
:10583000019001989C08A51C214850F8255003F0C0
:10584000030C4FEA8C0C0F2000FA0CF025EA00053F
:105850001D4886453FF465AF00F5806086451ED043
:1058600000F5806086451CD000F5806086451AD022
:1058700000F58060864518D000F58060864516D01A
:1058800000F58060864514D000F58060864512D012
:1058900000F5006086453FF442AF0A2042E7012050
:1058A00040E702203EE703203CE704203AE70520DA
:1058B00038E7062036E7072034E702B070BD00BFA6
:1058C0000004005800440258000002580AB18161E7
:1058D000704709048161704730B58C4615461A46F9
:1058E000846D0368DFF8D0E171498B4218BF7345BE
:1058F00042D018318B423FD018318B423CD0183106
:105900008B4239D018318B4236D018318B4233D08C
:1059100018318B4230D001F556718B422CD01831A2
:105920008B4229D018318B4226D018318B4223D09C
:1059300018318B4220D018318B421DD018318B4248
:105940001AD018318B4217D05A498B4214D01431D7
:105950008B4211D014318B420ED014318B420BD0BC
:1059600014318B4208D014318B4205D014318B4254
:1059700002D014318B4207D1436E816E5960C36EE1
:1059800013B1036F416F596003684B49DFF820E1A1
:10599000734518BF8B4268D00EF1180E734564D062
:1059A0000EF1180E734560D00EF1180E73455CD0E1
:1059B0000EF1180E734558D00EF1180E734554D0E1
:1059C0000EF1180E734550D00EF5567E73454CD02F
:1059D0000EF1180E734548D00EF1180E734544D0E1
:1059E0000EF1180E734540D00EF1180E73453CD0E1
:1059F0000EF1180E734538D00EF1180E734534D0E1
:105A00000EF1180E734530D0DFF8B0E02949734528
:105A100018BF8B4217D0DFF8A8E0734513D00EF102
:105A2000140E73450FD00EF1140E73450BD00EF10A
:105A3000140E734507D00EF1140E734503D00EF10A
:105A4000140E734527D1C36D03F01F0E012303FA13
:105A50000EF3636003685A608368402B22D00368AA
:105A6000C3F808C00368DD6015E0C36D03F01F0EC6
:105A70003F2303FA0EF3A3600468236823F4802312
:105A8000236003685A608368402B05D00368C3F81D
:105A900008C00368DD6030BD03689D600368C3F81B
:105AA0000CC0F8E703689D600368C3F80CC0F2E718
:105AB0002800024008540258100002401C540258AA
:105AC0003054025803682649264A934218BF8B4235
:105AD0002ED0183293422BD01832934228D018324D
